:080000000C9440000C94000078
:100008000C9400000C9400000C9400000C94000068
:100018000C9400000C9400000C9400000C94000058
:100028000C9400000C9474000C9400000C9497003D
:100038000C9400000C9400000C9400000C94000038
:100048000C9400000C9400000C9400001027E803A6
:1000580064000A0001000010000110000100000007
:100068000102010201020102010201000200660010
:100078000A00880168000000F894EE27ECBBF1E064
:10008800FBBFEBBFE5BFF8E1F1BDE1BD8DE0A2E04C
:10009800BB27ED938A95E9F780E094E0A0E6ED931D
:1000A8000197E9F7E2E7F0E085919591009761F013
:1000B800A591B59105901590BF01F00105900D929D
:1000C8000197E1F7FB01F0CFEFE5EDBFE4E0EEBF0C
:1000D800C0E6D1E00C94330177246624992408956E
:1000E800EA93FA93EFB7EA931A930A931BB10CB108
:1000F800E12FEC7189F4E72D7394F0E0E05AFE4F9C
:100108000083E8E2E71509F477249394E8E2E91517
:1001180019F49924689420F809911991E991EFBF8D
:10012800F991E99118950A921A92FA926A937A9338
:100138008A939A93AA93BA93EA93FA93EFB7EA93B6
:10014800992069F09A94E62D6394F0E0E05AFE4F06
:10015800E081ECB9E8E2E61509F4662402C0D89813
:10016800BBDFE991EFBFF991E991B991A991999113
:10017800899179916991F990199009901895AA93A4
:100188000E9482012FEF3FEFEC81E150EC83EF5F9B
:10019800C9F0AD81BE81ED91AD83BE83F0E02E271D
:1001A8003F2710E0183068F4E22FE1700E2F3695E3
:1001B8002795013020F0E1E0F0EA2E273F271F5F66
:1001C800F1CFE2CFF9010E94870127960895AA93FB
:1001D8001A93E985E0936001E885E0936101EF8176
:1001E800E0936201EE81E0936301ED81E0936401A5
:1001F800EC81E093650110E0E981E11771F40E9458
:100208007701EA59FE4F0F01AA81BB81ED91AA83BC
:10021800BB83D001EC931F5FEFCF0E947701E959B0
:10022800FE4FFF93EF930E947A01AF91BF91EC9339
:100238000E947701E859FE4FFF93EF930E947A01DD
:10024800EF2FF0E0AF91BF91EC93E12FE65F9E2E88
:100258006394E985ECB918812A9608957894E0E0CA
:10026800EBBBEFEFEABBE0E0E8BBE7BBE5BBE4BB19
:10027800E2BBE1BBE3BFE2BFECBFEFBDEEBDEDBD4E
:10028800ECBDE7BDE6BDEBBDEABDE9BDE8BDE2BD3D
:10029800E5BDE4BDE3BDE5BFE4BFE9BFEBB9E8ED0B
:1002A800EAB9E6E8E0BDE0E0E0BDE3E3E9B9E0E8AB
:1002B800E8B9E0E0E0BFE6B9EDB9E6BF7894E1E07F
:1002C800EA93E3E0EA93E0E0F0E0FA93EA93EAE005
:1002D800F0E0FA93EA93E8E8F1E0FA93EA93AAE007
:1002E80076DFFFCFFFCFE12FF0E00895E0E6F1E001
:1002F800FA93EA93A12FAA5F0C94C3003A932A9326
:100308001A930A9308953B812A81198108810895D7
:00000001FF
