:020000040800F2
:1000000078060020290200083B0200083D02000893
:100010003F020008410200084302000800000000FF
:100020000000000000000000000000004502000881
:100030004702000800000000490200084B020008C7
:100040004D0200084D0200084D0200084D02000854
:100050004D0200084D0200084D0200084D02000844
:100060004D0200084D0200084D0200084D02000834
:100070004D0200084D0200084D0200084D02000824
:100080004D0200084D0200084D0200084D02000814
:100090004D0200084D0200084D0200084D02000804
:1000A0004D0200084D0200084D0200084D020008F4
:1000B0004D0200084D0200084D0200084D020008E4
:1000C0004D0200084D0200084D0200084D020008D4
:1000D0004D0200084D0200084D0200084D020008C4
:1000E0004D0200084D0200084D0200084D020008B4
:1000F0004D0200084D0200084D0200084D020008A4
:100100004D0200084D0200084D0200084D02000893
:100110004D0200084D0200084D0200084D02000883
:100120004D0200084D0200084D0200084D02000873
:100130004D0200084D0200084D0200084D02000863
:100140004D0200084D0200084D0200084D02000853
:100150004D0200084D0200084D0200084D02000843
:100160004D0200084D0200084D0200084D02000833
:100170004D0200084D0200084D0200084D02000823
:100180004D0200084D02000800F002F800F03CF8B3
:100190000AA090E8000C82448344AAF10107DA45E2
:1001A00001D100F031F8AFF2090EBAE80F0013F0F8
:1001B000010F18BFFB1A43F0010318473803000072
:1001C00058030000103A24BF78C878C1FAD8520703
:1001D00024BF30C830C144BF04680C6070470000C1
:1001E0000023002400250026103A28BF78C1FBD840
:1001F000520728BF30C148BF0B6070471FB500F0E1
:1002000074F91FBD10B510BD00F039F91146FFF7A4
:10021000F5FF00F02FF900F057F903B4FFF7F2FFF4
:1002200003BC00F05BF900000C48016841F4700168
:1002300001600B4880470B480047FEE7FEE7FEE7FA
:10024000FEE7FEE7FEE7FEE7FEE7FEE7FEE700006B
:1002500005480649064A074B7047000088ED00E054
:100260003F0300088901000878000020780600207C
:10027000780200207802002000210020724A1268D3
:1002800042F48032704B1A6000BF6F4A126802F469
:100290000030491C10B9B1F5A06FF6D16A4A126856
:1002A00012F4003F01D0012000E00020012845D1D8
:1002B000654A4032126842F08052634B40331A6004
:1002C000624A126842F44042604B1A605E4A083249
:1002D00012685D4B08331A601A46126842F40042F5
:1002E0001A601A46126842F4A0521A60584A1B1F3C
:1002F0001A601A1F126842F080721B1F1A6000BF3A
:10030000514A126812F0007FFAD040F20572514B48
:100310001A604D4A0832126822F003024A4B083331
:100320001A601A46126842F002021A6000BF464A7A
:100330000832126802F00C02082AF8D1704710B592
:100340004548006840F47000434908603E48006832
:1003500040F001003C49086000203B49083108603A
:10036000394800683D490840374908603C48091D44
:100370000860081F006820F48020091F0860002022
:1003800031490C310860FFF777FF4FF000603249C8
:100390008039086010BD30B5002000220223844659
:1003A0000221294C0834246804F00C0020B10428F0
:1003B00006D0082836D107E02A4C2B4D2C6035E0BA
:1003C0002A4C294D2C6031E01F4C241D2468C4F3B5
:1003D000805C1D4C241D246804F03F01BCF1000F1B
:1003E0000AD0224CB4FBF1F4174D2D1D2D68C5F336
:1003F000881504FB05F209E01A4CB4FBF1F4124D28
:100400002D1D2D68C5F3881504FB05F20E4C241D27
:100410002468C4F30144641C6300B2FBF3F4124D7E
:100420002C6003E00F4C104D2C6000BF00BF064C49
:1004300008342468C4F303140D4D285D0A4C246865
:10044000C440094D2C6030BD0038024000700040AF
:1004500019544007003C024088ED00E0FFFFF6FE23
:10046000103000240024F4000000002000127A0064
:100470000400002000BFFEE77047704770477546D4
:1004800000F028F8AE4605006946534620F0070004
:10049000854618B020B5FFF7DBFEBDE820404FF0E1
:1004A00000064FF000074FF000084FF0000B21F05E
:1004B0000701AC46ACE8C009ACE8C009ACE8C0092B
:1004C000ACE8C0098D4670470446AFF30080204673
:1004D000FFF7A3FE004870471400002001491820D0
:1004E000ABBEFEE72600020070474FF04070E1EE21
:1004F000100A7047140500080000002014000000D6
:10050000C40100082805000814000020640600004B
:10051000E0010008007A030A00000000000000006B
:080520000102030406070809AB
:040000050800018965
:00000001FF
