:020000040800F2
:10000000FC030020250100088D0100088D01000877
:100010008D0100088D0100088D010008000000001E
:100020000000000000000000000000008D0100083A
:100030008D010008000000008D0100088D010008FE
:100040008D0100088D0100088D0100088D01000858
:100050008D0100088D0100088D0100088D01000848
:100060008D0100088D0100088D0100088D01000838
:100070008D0100088D0100088D0100088D01000828
:100080008D0100088D0100088D01000800000000AE
:100090000000000000000000000000008D010008CA
:1000A0008D0100088D0100088D0100088D010008F8
:1000B0008D0100088D0100088D0100088D010008E8
:1000C0008D0100088D0100088D0100088D010008D8
:1000D0008D0100088D0100088D0100088D010008C8
:1000E0008D0100088D0100088D010008000000004E
:1000F0000000000000000000000000000000000000
:1001000000000000000000000000000000000000EF
:1001100000000000000000008D0100088D010008B3
:100120005FF808F180B582B000AF134B7B60134BD2
:100130003B600BE07B681A683B681A603B6803F120
:1001400004033B607B6803F104037B603A680C4B5B
:100150009A42EFD30B480C494FF000028842B8BFD7
:1001600040F8042BFADB00F015F800F075FA07F1FF
:100170000807BD4680BD00BF34070008000000200E
:1001800000000020000000200000002080B400AF2C
:10019000FEE700BF80B500AF174B174A126842F068
:1001A00001021A60144A144B5968144B01EA030304
:1001B0005360114A104B1B6823F0847323F480337F
:1001C00013600D4B0C4A126822F480221A600A4B0D
:1001D000094A526822F4FE025A60074B4FF41F028C
:1001E0009A60054B4FF00002DA6200F00BF8044B06
:1001F0004FF000629A6080BD001002400000FFF8DE
:1002000000ED00E080B500AF00F002F880BD00BF57
:1002100080B483B000AF4FF000037B604FF0000369
:100220003B60314B304A126842F480321A602E4BE8
:100230001B6803F400333B607B6803F101037B60C0
:100240003B68002B03D17B68B3F5A06FEFD1264B41
:100250001B6803F40033002B03D04FF001033B6015
:1002600002E04FF000033B603B68012B37D11E4B8F
:100270001D4A52685A601C4B1B4A52685A601A4BFE
:10028000194A52685A60184B174A526822F47C1275
:100290005A60154B144A526842F498125A60124B35
:1002A000114A126842F080721A6000BF0E4B1B6840
:1002B00003F00073002BF9D00B4B0B4A526822F06D
:1002C00003025A60084B084A526842F002025A6020
:1002D00000BF054B5B6803F00C03082BF9D107F155
:1002E0000C07BD4680BC70470010024080B483B04C
:1002F00000AF4FF47A637B6003E07B6803F1FF3368
:100300007B607B68002BF8D107F10C07BD4680BCF1
:10031000704700BF80B500AF144B144A52685A6052
:10032000124A124B1968124B41EA030313600F4B38
:100330000E4A52685A600D4A0C4B19680D4B01EA7F
:100340000303136000F0CAF84FF001004FF0010101
:100350004FF0000200F086F800F07AF84FF0060047
:100360004FF0000100F0FCF880BD00BF001001401C
:1003700011111100111111FF80B584B000AF0346B7
:100380003960FB71FB794FEAC303DBB2DBB243F0A8
:100390004003DBB2DBB218464FF0000100F0E0F89A
:1003A0004FF00003FB730CE0FB7B3A68D3181B781B
:1003B00018464FF0010100F0D3F8FB7B03F1010375
:1003C000FB73FB7B072BEFD94FF080004FF0000150
:1003D00000F0C6F807F11007BD4680BD80B582B0B9
:1003E00000AF02460B46FA71BB71BB79002B09D1F5
:1003F000FB7963F07F03DBB218464FF0000100F099
:10040000AFF808E0FB7963F03F03DBB218464FF02A
:10041000000100F0A5F807F10807BD4680BD00BF48
:1004200080B582B000AF78600AE07B681B78184620
:100430004FF0010100F094F87B6803F101037B6049
:100440007B681B78002BF0D107F10807BD4680BD03
:1004500080B500AF4FF001004FF0000100F080F8D0
:1004600080BD00BF80B582B000AF13460246FA716E
:100470000A46BA717B71FB79002B06D14FF0080058
:100480004FF0000100F06CF823E0BB79002B10D195
:100490007B79002B06D14FF00C004FF0000100F0EB
:1004A0005FF816E04FF00D004FF0000100F058F833
:1004B0000FE07B79002B06D14FF00E004FF00001CA
:1004C00000F04EF805E04FF00F004FF0000100F093
:1004D00047F807F10807BD4680BD00BF80B500AFF3
:1004E0001E4B4FF47C121A611C4B4FF008021A612C
:1004F0001A4B4FF002021A61FFF7F8FE174B4FF448
:1005000000321A61FFF7F2FE144B4FF47C121A61AD
:10051000124B4FF008021A61104B4FF002021A61A1
:10052000FFF7E4FE0D4B4FF400321A61FFF7DEFED9
:100530000A4B4FF47C121A61084B4FF020021A61EB
:10054000064B4FF002021A61FFF7D0FE034B4FF447
:1005500000321A61FFF7CAFE80BD00BF00100140E3
:1005600080B582B000AF02460B46FA71BB71394BC1
:100570004FF47C121A61BB79002B03D0354B4FF03E
:1005800001021A61FB7903F01003002B03D0314BF9
:100590004FF004021A61FB7903F02003002B03D013
:1005A0002C4B4FF008021A61FB7903F04003002B3B
:1005B00003D0284B4FF010021A61FB795BB2002B7D
:1005C00003DA244B4FF020021A61224B4FF0020253
:1005D0001A61FFF78BFE1F4B4FF400321A61FFF7D1
:1005E00085FE1C4B4FF470121A61FB7903F0010376
:1005F000DBB2002B03D0174B4FF004021A61FB79DA
:1006000003F00203002B03D0124B4FF008021A61D3
:10061000FB7903F00403002B03D00E4B4FF01002C4
:100620001A61FB7903F00803002B03D0094B4FF04C
:1006300020021A61074B4FF002021A61FFF756FEC3
:10064000044B4FF400321A61FFF750FE07F1080720
:10065000BD4680BD0010014080B582B000AF4FF0B4
:1006600010004FF0010100F03BF8FFF753FE4FF090
:100670000E033B704FF011037B704FF01103BB7002
:100680004FF01103FB704FF011033B714FF00A0361
:100690007B714FF01103BB714FF01103FB713B46AF
:1006A0004FF000001946FFF767FE0C48FFF7B8FE51
:1006B0004FF000004FF00101FFF790FE4FF00000F7
:1006C0004FF00101FFF74CFF4FF001004FF0010127
:1006D0004FF00102FFF7C6FEFEE700BF2407000847
:1006E00080B483B000AF78600B46FB70FB78002BC2
:1006F00007D00B4B0A4A91697A6841EA02029A6173
:1007000008E0074B064A91697A686FEA020201EA3B
:1007100002029A6107F10C07BD4680BC704700BF1A
:100720000010024054686973206973206669736819
:0407300000000000C5
:0400000508000000EF
:00000001FF
